S0120000536D6172745F446F6F722E7372656318
S11300000C942A000C943F000C943F000C943F0085
S11300100C943F000C943F000C943F000C943F0060
S11300200C943F000C943F000C943F000C943F0050
S11300300C943F000C943F000C943F000C943F0040
S11300400C943F000C943F000C943F000C943F0030
S11300500C943F0011241FBECFE5D8E0DEBFCDBF16
S113006011E0A0E6B0E0EEEFF3E002C005900D92DF
S1130070A233B107D9F70E941C010C94FD010C9422
S1130080000092B39E7F92BB92B39D7F92BB85BBCF
S113009082B3846082BB89EF90E00197F1F700C0DE
S11300A0000082B38B7F82BB08958FEF84BB87E00F
S11300B081BB87E893E10197F1F700C0000088E372
S11300C00E9441008EE00E94410081E00E944100B4
S11300D083EF91E00197F1F700C00000089592B317
S11300E0916092BB92B39D7F92BB85BB82B38460C7
S11300F082BB89EF90E00197F1F700C0000082B362
S11301008B7F82BB08950F931F93CF938C01C0E024
S113011009C00E946F0087EA91E60197F1F700C0D9
S11301200000CF5FF801EC0FF11D80818111F1CF48
S1130130CF911F910F91089530E047C080EF8ABBA3
S1130140632F70E0AB014C5F5F4F81E090E002C031
S1130150880F991F4A95E2F780958BBB20E032C047
S113016089B3422F50E090E0022E02C09595879506
S11301700A94E2F780FD06C081EE94E00197F1F75E
S113018000C0000089B390E0042E02C095958795C5
S11301900A94E2F780FD15C089B390E0042E02C0F2
S11301A0959587950A94E2F780FFF6CF660F771F3F
S11301B0660F771F62557F4FFB01E40FF51F8081A7
S11301C008952F5F243060F23F5F343008F4B6CFD7
S11301D0B3CF0F931F93CF93DF938C01D62FC0E03F
S11301E024C00E949C00F801EC0FF11D80838D3225
S11301F069F4CC2359F0C25080E10E94410080E2AE
S11302000E946F0080E10E9441000EC090ED980FA3
S11302109A3010F0C15008C0DD2319F00E946F001D
S113022003C08AE20E946F00CF5FC430D0F2DF9136
S1130230CF911F910F910895CF93DF9300D000D0F9
S11302401F92CDB7DEB7FE01319685E0DF011D9226
S11302508A95E9F70E9455008FE187BB00E018BA40
S113026081E00E94410080E80E944100033079F45B
S11302708EEB90E00E94830080EC0E9441008FECA2
S113028090E00E94830088B3816088BBFFCF8FED2C
S113029090E00E94830061E0CE0101960E94E90093
S11302A010E081C0E12EF12CC701880F991F880F3F
S11302B0991F8E0D9F1DBE016F5F7F4F81569F4F0B
S11302C00E94F401892B09F06DC080EC0E9441006A
S11302D084EE90E00E94830060E0CE0101960E94CB
S11302E0E900C701880F991F880F991F8E0D9F1D64
S11302F0BE016F5F7F4F80579F4F0E94F401892B8F
S1130300C1F581E00E94410080E80E9441008FEE27
S113031090E00E94830080EC0E944100C701829516
S11303209295907F9827807F9827805A9F4F0E94AC
S1130330830088B3826088BB88B3846088BB88B339
S1130340806188BBBFEF24E38CE0B1502040804043
S1130350E1F700C0000088B38B7F88BB81E00E9476
S1130360410080E80E94410080E091E00E94830007
S1130370FFCF0F5F81E00E94410080E80E944100AE
S113038081E191E00E94830088B3816088BB9FE78C
S1130390AAE1B6E09150A040B040E1F700C00000EF
S11303A081E005C01F5F133008F47CCF80E0811129
S11303B056CF133009F053CF0F5F81E00E94410004
S11303C080E80E94410082E291E00E94830088B3A9
S11303D0816088BB2FE78AE196E0215080409040FD
S11303E0E1F700C000003BCFFB01DC018D910190DF
S11103F080190110D9F3990B0895F894FFCFEA
S11303FE202020202041686D65640000000000006C
S113040E20202020204D6F72616400000000000047
S113041E202020202048657368616D0000000000D4
S113042E3132333400343735380036343331003119
S113043E3231320032303230003837373800373804
S113044E392F3435362A3132332D41303D2B20208D
S113045E486F7573652041636365737320200020B4
S113046E202020426C6F636B65642020202000499D
S113047E443A200050617373776F72643A200020FF
S113048E2057656C636F6D6520486F6D6520200085
S113049E20446F6F72206973206F70656E656420DF
S11304AE002057726F6E672050617373776F72649A
S11304BE20002020202057726F6E67204944202090
S10504CE200008
S9030000FC
